:020000020000FC
:1000000003E004B90FE307B9F0E080E000E00BB9CA
:10001000A8D101E005B91A9BF9CF00C01A99FECF0B
:1000200060D104E00BB989D05AD0981711F48DD162
:1000300001C00CC008E00BB9E9D094D050D098179B
:1000400029F44DD0A81711F480D101C03AC00CE0BA
:100050000BB9DCD0ECD09BD042D0981791F53FD0B3
:10006000A81779F53CD0B81761F56FD100E10BB94D
:10007000CDD0DDD0EDD0A0D032D0981711F52FD053
:10008000A817F9F42CD0B817E1F429D0C817C9F48F
:100090005CD104E10BB9BAD0CAD0DAD0EAD0A1D091
:1000A0001ED0981771F41BD0A81759F418D0B817A0
:1000B00041F415D0C81729F412D0D81711F445D13E
:1000C00007C004D148D102D146D100D144D19ECF3E
:1000D000FDD03BD1FBD039D1F9D037D197CF01E05A
:1000E00005B93FD11C9B01C00FC01B9B01C011C0B3
:1000F00002E005B936D11C9B01C010C01B9B01C09A
:1001000012C01A9BECCF14C01C99FECF06D180E020
:1001100008951B99FECF07D181E008951C99FECF69
:1001200008D182E008951B99FECF09D183E008959C
:100130001A99FECF10D16ACF0895C8D0F03031F0AF
:10014000F13039F0F23041F0F33049F090E0E5D091
:10015000089591E0E8D0089592E0EBD0089593E0FF
:10016000EED00895B3D0F03031F0F13039F0F23004
:1001700041F0F33049F0A0E0D0D00895A1E0D3D011
:100180000895A2E0D6D00895A3E0D9D008959ED0D6
:10019000F03031F0F13039F0F23041F0F33049F025
:1001A000B0E0BBD00895B1E0BED00895B2E0C1D0B8
:1001B0000895B3E0C4D0089589D0F03031F0F13023
:1001C00039F0F23041F0F33049F0C0E0A6D00895A4
:1001D000C1E0A9D00895C2E0ACD00895C3E0AFD08B
:1001E000089574D0F03031F0F13039F0F23041F050
:1001F000F33049F0D0E091D00895D1E094D0089543
:10020000D2E097D00895D3E09AD008955FD090308F
:1002100031F0913031F0923031F0933031F07DD0C7
:10022000089581D0089585D0089589D008954ED03D
:10023000A03031F0A13031F0A23031F0A33031F0F4
:100240006CD0089570D0089574D0089578D0089532
:100250003DD0B03031F0B13031F0B23031F0B330A8
:1002600031F05BD008955FD0089563D0089567D0D2
:1002700008952CD0C03031F0C13031F0C23031F0AF
:10028000C33031F04AD008954ED0089552D0089529
:1002900056D008951BD0D03031F0D13031F0D2306B
:1002A00031F0D33031F039D008953DD0089541D0A8
:1002B000089545D0089530E24AEF5AEF00005A956C
:1002C000E9F74A95D1F73A95B9F7089530E14AEF41
:1002D0005AEF00005A95E9F74A95D1F73A95B9F7E0
:1002E000089501E00BB908B9F1DF02E00BB908B9D4
:1002F000EDDF04E00BB908B9E9DF08E00BB908B994
:10030000E5DF00E10BB908B9E1DF00E20BB908B99C
:10031000DDDF00E008B90BB9089501E008B9CBDFD3
:1003200000E008B9089502E008B9C5DF00E008B9A7
:10033000089508E008B9BFDF00E008B9089500E1BA
:1003400008B9B9DF00E008B9089504E008B9B3DFDF
:1003500000E008B9089500E208B9ADDF00E008B98F
:0E0360000895F395F43009F00895F0E0089543
:00000001FF
